{
  "contractName": "Auction",
  "abi": [
    {
      "inputs": [],
      "stateMutability": "nonpayable",
      "type": "constructor"
    },
    {
      "inputs": [],
      "name": "highestBid",
      "outputs": [
        {
          "internalType": "uint256",
          "name": "",
          "type": "uint256"
        }
      ],
      "stateMutability": "view",
      "type": "function",
      "constant": true
    },
    {
      "inputs": [],
      "name": "highestBidder",
      "outputs": [
        {
          "internalType": "address",
          "name": "",
          "type": "address"
        }
      ],
      "stateMutability": "view",
      "type": "function",
      "constant": true
    },
    {
      "inputs": [
        {
          "internalType": "address",
          "name": "",
          "type": "address"
        }
      ],
      "name": "userBalances",
      "outputs": [
        {
          "internalType": "uint256",
          "name": "",
          "type": "uint256"
        }
      ],
      "stateMutability": "view",
      "type": "function",
      "constant": true
    },
    {
      "inputs": [],
      "name": "bid",
      "outputs": [],
      "stateMutability": "payable",
      "type": "function",
      "payable": true
    },
    {
      "inputs": [],
      "name": "withdraw",
      "outputs": [],
      "stateMutability": "nonpayable",
      "type": "function"
    }
  ],
  "bytecode": "0x608060405234801561001057600080fd5b50336000806101000a81548173ffffffffffffffffffffffffffffffffffffffff021916908373ffffffffffffffffffffffffffffffffffffffff160217905550600060028190555060008054906101000a900473ffffffffffffffffffffffffffffffffffffffff16600160006101000a81548173ffffffffffffffffffffffffffffffffffffffff021916908373ffffffffffffffffffffffffffffffffffffffff1602179055506109a6806100c96000396000f3fe60806040526004361061004a5760003560e01c80631998aeef1461004f57806326224c64146100595780633ccfd60b146100be57806391f90157146100d5578063d57bde7914610116575b600080fd5b610057610141565b005b34801561006557600080fd5b506100a86004803603602081101561007c57600080fd5b81019080803573ffffffffffffffffffffffffffffffffffffffff1690602001909291905050506104bf565b6040518082815260200191505060405180910390f35b3480156100ca57600080fd5b506100d36104d7565b005b3480156100e157600080fd5b506100ea61083e565b604051808273ffffffffffffffffffffffffffffffffffffffff16815260200191505060405180910390f35b34801561012257600080fd5b5061012b610864565b6040518082815260200191505060405180910390f35b60008054906101000a900473ffffffffffffffffffffffffffffffffffffffff1673ffffffffffffffffffffffffffffffffffffffff163373ffffffffffffffffffffffffffffffffffffffff1614156101e6576040517f08c379a000000000000000000000000000000000000000000000000000000000815260040180806020018281038252602981526020018061090e6029913960400191505060405180910390fd5b6002543411610240576040517f08c379a00000000000000000000000000000000000000000000000000000000081526004018080602001828103825260368152602001806108d86036913960400191505060405180910390fd5b600254600381905550600160009054906101000a900473ffffffffffffffffffffffffffffffffffffffff16600460006101000a81548173ffffffffffffffffffffffffffffffffffffffff021916908373ffffffffffffffffffffffffffffffffffffffff1602179055503460028190555033600160006101000a81548173ffffffffffffffffffffffffffffffffffffffff021916908373ffffffffffffffffffffffffffffffffffffffff1602179055506000600660003373ffffffffffffffffffffffffffffffffffffffff1673ffffffffffffffffffffffffffffffffffffffff168152602001908152602001600020541115610479573373ffffffffffffffffffffffffffffffffffffffff166108fc600660003373ffffffffffffffffffffffffffffffffffffffff1673ffffffffffffffffffffffffffffffffffffffff168152602001908152602001600020549081150290604051600060405180830381858888f1935050505061047857600354600281905550600460009054906101000a900473ffffffffffffffffffffffffffffffffffffffff16600160006101000a81548173ffffffffffffffffffffffffffffffffffffffff021916908373ffffffffffffffffffffffffffffffffffffffff1602179055506001610477576040517f08c379a000000000000000000000000000000000000000000000000000000000815260040180806020018281038252603581526020018061086b6035913960400191505060405180910390fd5b5b5b34600660003373ffffffffffffffffffffffffffffffffffffffff1673ffffffffffffffffffffffffffffffffffffffff16815260200190815260200160002081905550565b60066020528060005260406000206000915090505481565b600160009054906101000a900473ffffffffffffffffffffffffffffffffffffffff1673ffffffffffffffffffffffffffffffffffffffff163373ffffffffffffffffffffffffffffffffffffffff16141561057e576040517f08c379a00000000000000000000000000000000000000000000000000000000081526004018080602001828103825260388152602001806108a06038913960400191505060405180910390fd5b60008054906101000a900473ffffffffffffffffffffffffffffffffffffffff1673ffffffffffffffffffffffffffffffffffffffff163373ffffffffffffffffffffffffffffffffffffffff161415610623576040517f08c379a000000000000000000000000000000000000000000000000000000000815260040180806020018281038252602981526020018061090e6029913960400191505060405180910390fd5b6000600660003373ffffffffffffffffffffffffffffffffffffffff1673ffffffffffffffffffffffffffffffffffffffff16815260200190815260200160002054116106d8576040517f08c379a000000000000000000000000000000000000000000000000000000000815260040180806020018281038252601c8152602001807f4552524f52202d20576974686472617720616d6f756e74206f6620300000000081525060200191505060405180910390fd5b600660003373ffffffffffffffffffffffffffffffffffffffff1673ffffffffffffffffffffffffffffffffffffffff168152602001908152602001600020546005819055506000600660003373ffffffffffffffffffffffffffffffffffffffff1673ffffffffffffffffffffffffffffffffffffffff168152602001908152602001600020819055503373ffffffffffffffffffffffffffffffffffffffff166108fc6005549081150290604051600060405180830381858888f1935050505061083c57600554600660003373ffffffffffffffffffffffffffffffffffffffff1673ffffffffffffffffffffffffffffffffffffffff16815260200190815260200160002081905550600161083b576040517f08c379a000000000000000000000000000000000000000000000000000000000815260040180806020018281038252603a815260200180610937603a913960400191505060405180910390fd5b5b565b600160009054906101000a900473ffffffffffffffffffffffffffffffffffffffff1681565b6002548156fe4552524f52202d20556e6578706578746564206572726f7220647572696e67206269642c2074727920616761696e206c61746572214552524f52202d20596f7520617265207468652068696768657374206269646465722c20796f752063616e742774207769746864726177214552524f52202d205468652063757272656e742068696768657374206269642069732067726561746572207468616e20796f757273214552524f52202d20596f752061726520746865206f776e65722c20796f752063616e277420626964214552524f52202d20556e6578706563746564206572726f7220647572696e672077697468647261772c2074727920616761696e206c6174657221a2646970667358221220fdeb55b165922a296982ea3f1d93015d6e62af582353fefc2e82810ebf52e79064736f6c63430007060033",
  "immutableReferences": {},
  "source": "// SPDX-License-Identifier: GPL-3.0\r\n\r\npragma solidity >= 0.7.0 < 0.8.0;\r\n\r\ncontract Auction {\r\n    \r\n    address payable Owner;\r\n    address public highestBidder; // The highest bidder's address\r\n    uint public highestBid; // The amount of the highest bid\r\n    \r\n    uint private tempHighestBid;\r\n    address private tempHighestBidder;\r\n    uint private temp;\r\n    \r\n    mapping(address => uint) public userBalances; // mapping for the amount to return\r\n    \r\n    constructor() {\r\n        // contractor\r\n        Owner = msg.sender;\r\n        highestBid = 0;\r\n        highestBidder = Owner;\r\n    }\r\n    \r\n    modifier notOwner(){\r\n        require(msg.sender != Owner,\"ERROR - You are the owner, you can't bid!\");\r\n        _;\r\n    }\r\n    \r\n    modifier notHighestBidder(){\r\n        require(msg.sender != highestBidder, \"ERROR - You are the highest bidder, you cant't withdraw!\");\r\n        _;\r\n    }\r\n    \r\n    function bid() public payable notOwner{\r\n        // Function to process bid\r\n        require(msg.value>highestBid, \"ERROR - The current highest bid is greater than yours!\");\r\n        \r\n        tempHighestBid = highestBid;\r\n        tempHighestBidder = highestBidder;\r\n        \r\n        highestBid = msg.value;\r\n        highestBidder = msg.sender;\r\n        \r\n        if(userBalances[msg.sender] > 0) {\r\n            if(!msg.sender.send(userBalances[msg.sender])){\r\n                highestBid = tempHighestBid;\r\n                highestBidder = tempHighestBidder;\r\n                require(true, \"ERROR - Unexpexted error during bid, try again later!\");\r\n            }\r\n        }\r\n        \r\n        userBalances[msg.sender] = msg.value;\r\n    }\r\n    \r\n    function withdraw() public notHighestBidder notOwner{\r\n        // Function to withdraw the amount of bid to return\r\n        require(userBalances[msg.sender] > 0, \"ERROR - Withdraw amount of 0\");\r\n        \r\n        temp = userBalances[msg.sender];\r\n        userBalances[msg.sender] = 0;\r\n        \r\n        if(!msg.sender.send(temp)) {\r\n            userBalances[msg.sender] = temp;\r\n            require(true, \"ERROR - Unexpected error during withdraw, try again later!\");\r\n        }\r\n    }\r\n}",
  "sourcePath": "/home/paul/Desktop/BlockChain/Dapp/contracts/Aution.sol",
  "compiler": {
    "name": "solc",
    "version": "0.7.6+commit.7338295f.Emscripten.clang"
  },
  "schemaVersion": "3.4.1",
  "updatedAt": "2021-05-31T16:08:30.127Z",
  "networkType": "ethereum",
  "devdoc": {
    "kind": "dev",
    "methods": {},
    "version": 1
  },
  "userdoc": {
    "kind": "user",
    "methods": {},
    "version": 1
  }
}